:100000000C945C000C9479000C9479000C947900A9
:100010000C9479000C9479000C9479000C9479007C
:100020000C9479000C9479000C9479000C9479006C
:100030000C9479000C9479000C9479000C9479005C
:100040000C94EC000C9479000C9479000C947900D9
:100050000C9479000C9479000C9479000C9479003C
:100060000C9479000C947900000000080002010053
:100070000003040700000000000000000000000072
:10008000250028002B0000000000240027002A0083
:10009000040404040404040402020202020203032E
:1000A0000303030301020408102040800102040836
:1000B000102001020408102011241FBECFEFD8E049
:1000C000DEBFCDBF11E0A0E0B1E0E4EEF3E002C09E
:1000D00005900D92A830B107D9F721E0A8E0B1E072
:1000E00001C01D92A131B207E1F70E9436010C94C4
:1000F000F0010C94000090E0FC01E859FF4F2491BE
:10010000FC01EC55FF4F3491FC01E057FF4FE491A7
:10011000EE23C9F0222339F0233001F1A8F4213075
:1001200019F1223029F1F0E0EE0FFF1FE458FF4FE4
:10013000A591B4918FB7F894EC91611126C03095D8
:100140003E233C938FBF08952730A9F02830C9F093
:10015000243049F7809180008F7D03C0809180001A
:100160008F7780938000DFCF84B58F7784BDDBCF1E
:1001700084B58F7DFBCF8091B0008F778093B000E6
:10018000D2CF8091B0008F7DF9CF3E2BDACF3FB731
:10019000F89480910D0190910E01A0910F01B09102
:1001A000100126B5A89B05C02F3F19F00196A11D8F
:1001B000B11D3FBFBA2FA92F982F8827BC01CD01B1
:1001C000620F711D811D911D42E0660F771F881F10
:1001D000991F4A95D1F708951F920F920FB60F926B
:1001E00011242F933F938F939F93AF93BF9380914D
:1001F000090190910A01A0910B01B0910C0130917D
:10020000080123E0230F2D3758F50196A11DB11DDC
:10021000209308018093090190930A01A0930B0198
:10022000B0930C0180910D0190910E01A0910F01EE
:10023000B09110010196A11DB11D80930D01909305
:100240000E01A0930F01B0931001BF91AF919F9148
:100250008F913F912F910F900FBE0F901F90189587
:1002600026E8230F0296A11DB11DD2CF789484B544
:10027000826084BD84B5816084BD85B5826085BDA2
:1002800085B5816085BD80916E00816080936E0030
:100290001092810080918100826080938100809122
:1002A00081008160809381008091800081608093D3
:1002B00080008091B10084608093B1008091B00093
:1002C00081608093B00080917A00846080937A008E
:1002D00080917A00826080937A0080917A008160B8
:1002E00080937A0080917A00806880937A001092DF
:1002F000C100A0E0B1E08D9190E0FC01EC55FF4F12
:10030000249180579F4FFC018491882399F090E0BD
:10031000880F991FFC01EA57FF4FC591D491FC014A
:10032000E458FF4F859194918FB7F894E881E22BC0
:10033000E8838FBFF1E0A930BF07E9F620E0A22EE5
:1003400020E0B22ED0E0C0E090E0E92E91E0F92E5E
:1003500010E000E0F70181917F019E01002E02C0B4
:10036000359527950A94E2F761E020FF60E00E944E
:100370007B000F5F1F4F0830110561F70E94C70017
:100380002B013C0188EEC82E83E0D82EE12CF12C05
:100390000E94C7006419750986099709683E734071
:1003A00081059105A8F3F1E0CF1AD108E108F10821
:1003B00028EE420E23E0521E611C711CC114D104B0
:1003C000E104F10429F72196C115F1E0DF0709F0F6
:1003D000BBCFA114B10409F4B5CF0E940000B2CF85
:0403E000F894FFCFBF
:0803E40005060708090A0B0CCD
:00000001FF
